:100000000C9462000C948A000C948A000C948A0070
:100010000C948A000C948A000C948A000C948A0038
:100020000C948A000C948A000C948A000C948A0028
:100030000C948A000C948A000C948A000C948A0018
:100040000C946E060C948A000C943C060C941606D4
:100050000C948A000C948A000C948A000C948A00F8
:100060000C948A000C948A000000000024002700F1
:100070002A0000000000250028002B0000000000DE
:1000800023002600290004040404040404040202DA
:100090000202020203030303030301020408102007
:1000A0004080010204081020010204081020000012
:1000B0000008000201000003040700000000000027
:1000C0000000B80611241FBECFEFD8E0DEBFCDBFC1
:1000D00012E0A0E0B1E0ECE2F2E102C005900D9286
:1000E000AC33B107D9F723E0ACE3B2E001C01D9215
:1000F000A037B207E1F710E0C2E6D0E004C02197D4
:10010000FE010E940E09C136D107C9F70E9472078D
:100110000C9414090C94000096E0899FD0011124DE
:10012000A751BD4F90967C936E935F9791E0919607
:100130009C939197E0915603F0915703909155034A
:10014000992339F0309751F0811108C0809105034F
:100150000994309719F05C968C91FACF0895CF925C
:10016000DF92EF92FF920F931F9396E0899FF00129
:100170001124E751FD4F11A2278D30A12130310507
:1001800051F178F02230310509F451C023303105A6
:1001900009F452C01F910F91FF90EF90DF90CF9024
:1001A00008956623B9F361E070E00E948C002FB7D8
:1001B000F8948091480290914902A0914A02B0912E
:1001C0004B022FBF8093410390934203A0934303BC
:1001D000B0934403DFCF9FB7F894C0904802D0900B
:1001E0004902E0904A02F0904B029FBF0091410308
:1001F000109142032091430330914403C01AD10A65
:10020000E20AF30A009153031091540330E020E016
:100210000C151D052E053F0550F462E070E01F919E
:100220000F91FF90EF90DF90CF900C948C006111B4
:10023000B1CF63E070E0F3CF70E060E0F0CFAF9259
:10024000BF92CF92DF92EF92FF920F931F93CF93C3
:10025000DF936C017B018B01040F151FEB015E0125
:10026000AE18BF08C017D10759F06991D601ED91BA
:10027000FC910190F081E02DC6010995892B79F759
:10028000C501DF91CF911F910F91FF90EF90DF900B
:10029000CF90BF90AF900895FC01538D448D252FD2
:1002A00030E0842F90E0821B930B541710F0CF9610
:1002B000089501970895FC01918D828D981761F042
:1002C000A28DAE0FBF2FB11D5D968C91928D9F5F59
:1002D0009F73928F90E008958FEF9FEF0895FC0138
:1002E000918D828D981731F0828DE80FF11D858DEB
:1002F00090E008958FEF9FEF0895FC01918D228D7E
:10030000892F90E0805C9F4F821B91098F73992702
:1003100008958CE492E00E947D0121E0892B09F48C
:1003200020E0822F089580E090E0892B29F00E9440
:10033000890181110C9400000895FC01A48DA80F7F
:10034000B92FB11DA35ABF4F2C91848D90E0019617
:100350008F739927848FA689B7892C93A089B18937
:100360008C91837080648C93938D848D981306C0D8
:100370000288F389E02D80818F7D80830895EF923C
:10038000FF920F931F93CF93DF93EC0181E0888F4F
:100390009B8D8C8D98131AC0E889F989808185FF1F
:1003A00015C09FB7F894EE89FF896083E889F989C1
:1003B00080818370806480839FBF81E090E0DF91C3
:1003C000CF911F910F91FF90EF900895F62E0B8D16
:1003D00010E00F5F1F4F0F731127E02E8C8D8E11D1
:1003E0000CC00FB607FCFACFE889F989808185FF38
:1003F000F5CFCE010E949D01F1CFEB8DEC0FFD2FCB
:10040000F11DE35AFF4FF0829FB7F8940B8FEA89F2
:10041000FB8980818062CFCFCF93DF93EC01888D01
:100420008823B9F0AA89BB89E889F9898C9185FD6F
:1004300003C0808186FD0DC00FB607FCF7CF8C91FD
:1004400085FFF2CF808185FFEDCFCE010E949D0117
:10045000E9CFDF91CF910895833081F028F4813086
:1004600099F08230A9F008958730A9F08830C9F05A
:100470008430B1F4809180008F7D03C08091800032
:100480008F7780938000089584B58F7784BD089519
:1004900084B58F7DFBCF8091B0008F778093B000C3
:1004A00008958091B0008F7DF9CFCF93DF93282FEF
:1004B00030E0F901E255FF4F8491F901E656FF4F14
:1004C000D491F901EA57FF4FC491CC23A1F08111D7
:1004D0000E942C02EC2FF0E0EE0FFF1FE458FF4FBC
:1004E000A591B491EC91ED2381E090E009F480E0D6
:1004F000DF91CF91089580E090E0FACF862F0C94A1
:1005000055021F93CF93DF93282F30E0F901E25576
:10051000FF4F8491F901E656FF4FD491F901EA5754
:10052000FF4FC491CC23A9F0162F81110E942C02F9
:10053000EC2FF0E0EE0FFF1FEE58FF4FA591B491A6
:100540008FB7F894EC91111108C0D095DE23DC939D
:100550008FBFDF91CF911F910895DE2BF8CF862FAB
:10056000642F0C948102CF93DF9390E0FC01E65658
:10057000FF4F24918A579F4FFC0184918823C9F033
:1005800090E0880F991FFC01E859FF4FA591B491A5
:10059000FC01EE58FF4FC591D49161110DC09FB77A
:1005A000F8948C91209582238C938881282328832A
:1005B0009FBFDF91CF910895623051F49FB7F894B7
:1005C0003C91822F809583238C93E8812E2BEFCF53
:1005D0008FB7F894EC912E2B2C938FBFEACF862FF8
:1005E000642F0C94B3026F927F928F929F92AF927E
:1005F000BF92CF92DF92EF92FF920F931F93CF9310
:10060000DF9381E0809355038FB7F89440914802BF
:100610005091490260914A0270914B028FBF8091C4
:10062000450390914603A0914703B0914803481BAE
:10063000590B6A0B7B0B8091510390915203B0E0F0
:10064000A0E084179507A607B70708F01DC1C0E012
:1006500080914F03C81760F4E0914B03F0914C0375
:10066000EC0FF11D62E080810E94B302CF5FF0CFFA
:10067000712C812C912C5401839480915003781615
:1006800008F05FC0072D10E0E0914D03F0914E039C
:10069000E00FF11F61E080810E94B302E0914D0301
:1006A000F0914E03E00FF11F60E080810E94810213
:1006B000D501C401072C04C0880F991FAA1FBB1FB6
:1006C0000A94D2F76C017C01E094F094612C809143
:1006D0004F036816F8F4C62DD0E0E0914B03F0917B
:1006E0004C03EC0FFD1F80810E9455022496CC0F15
:1006F000DD1FC751DD4F892B41F4888199818C29F9
:100700009D29998388836394E2CF888199818E2182
:100710009F21F7CFE0914D03F0914E03E00FF11FC1
:1007200061E080810E94810280914D0390914E038F
:10073000080F191F60E0F80180810E94B3027394D2
:100740009CCFC9EED2E0FE018FEF9FEF278D30A145
:10075000232B21F4148E968F858F11A2369623E0D9
:10076000E532F20799F7F12C96E0D92E80914F03EC
:10077000F81608F050C0E12C0F2D10E0000F111FEB
:100780000F501D4F20915003E21608F042C0F801AF
:10079000608171810E2C02C0769567950A94E2F70C
:1007A000F29E900111242E0D311DE9EEF2E080E061
:1007B000458D568D2417350709F46AC08F5F36962C
:1007C0008A30B1F760FF23C0E9EEF2E090E080E00C
:1007D000448D411117C0E0914903F0914A03E20FA3
:1007E000F31F4081D89EF001D99EF00D1124E751EE
:1007F000FD4F448F368F258F10A2178E61E00E9427
:10080000AF0005C0019636968A30910509F7E3944A
:10081000B9CFF394ABCF80E099A19111892F26969F
:10082000F3E0C532DF07C1F79FB7F8944091480263
:100830005091490260914A0270914B029FBF4093D0
:1008400045035093460360934703709348038823FE
:10085000D9F080910A038823B9F080910803909120
:100860000903019789F480910503DF91CF911F91CE
:100870000F91FF90EF90DF90CF90BF90AF909F903F
:100880008F907F906F9008951092550380E0EDCF88
:100890006170B5CF3FB7F89480913D0290913E02D0
:1008A000A0913F02B091400226B5A89B05C02F3F02
:1008B00019F00196A11DB11D3FBFBA2FA92F982F86
:1008C0008827BC01CD01620F711D811D911D42E081
:1008D000660F771F881F991F4A95D1F708958F9249
:1008E0009F92AF92BF92CF92DF92EF92FF920E94BF
:1008F0004A044B015C0180EDC82E87E0D82EE12C24
:10090000F12C0E944A04681979098A099B09683EFA
:10091000734081059105A8F321E0C21AD108E108CE
:10092000F10888EE880E83E0981EA11CB11CC1144A
:10093000D104E104F10429F7FF90EF90DF90CF900C
:10094000BF90AF909F908F900895089590E080E0C1
:100950000895FB0101900020E9F73197AF01461B94
:10096000570BDC01ED91FC910280F381E02D09949D
:10097000BC0188E593E00C94A904CF93DF93EC01CC
:1009800060E08E810E94810261E08E810E9481027E
:1009900060E08E810E9481028BE891E00197F1F77F
:1009A000DF91CF910895CF92DF92EF92FF920F9354
:1009B0001F93CF93DF936C017C0187E0E80EF11C5D
:1009C000D0E0C0E0062F10E0B8010C2E02C07595F3
:1009D00067950A94E2F76170F70181917F010E94A7
:1009E00081022196C430D10579F7C601DF91CF91FC
:1009F0001F910F91FF90EF90DF90CF900C94BD046A
:100A0000CF92DF92EF92FF920F931F93CF93DF93DA
:100A1000EC01F62E642F8C810E9481028D818F3F24
:100A200019F060E00E9481020F2D10E08F8584FF95
:100A300025C06E0187E0C80ED11CF12CE12CB80155
:100A40000E2C02C0759567950A94E2F76170F60165
:100A500081916F010E948102FFEFEF1AFF0A88E087
:100A6000E816F10461F7CE01DF91CF911F910F914C
:100A7000FF90EF90DF90CF900C94BD04B80184E01C
:100A8000759567958A95E1F7CE010E94D3046F2D85
:100A9000CE01DF91CF911F910F91FF90EF90DF90EA
:100AA000CF900C94D30440E0682F88E593E00C9439
:100AB000000581E00E9453058BE39FE10197F1F768
:100AC0000895CF93DF93613029F090916703986088
:100AD0009093670360936B0310926C0390E4909380
:100AE0006D0380936E03805C80936F0361E080915F
:100AF0005C030E94B30280915D038F3F19F061E0B7
:100B00000E94B30261E080915E030E94B302C8E5D7
:100B1000D3E09E01285533408091670384FD0BC0CC
:100B200084E090E021962817390744F461E08E8133
:100B30000E94B302EECF88E090E0F4CF8BE39DE01B
:100B40000197F1F760E080915C030E94810260E010
:100B500080915E030E94810280915D038F3F19F0B6
:100B600060E00E9481028091670384FD34C063E0ED
:100B700088E593E00E94D304CBE4D6E4CE0101974C
:100B8000F1F763E088E593E00E94D3042197F1F741
:100B900063E088E593E00E94D30483E592E0019747
:100BA000F1F762E088E593E00E94D3048091670347
:100BB00080620E94530584E0809368038CE00E9469
:100BC00053050E94590582E08093690386E0DF9116
:100BD000CF910C94530580620E9453058BE496E4F8
:100BE0000197F1F78091670380620E94530583E5C6
:100BF00092E00197F1F78091670380620E945305AC
:100C0000D5CF90916B03691710F06FEF690FE62F46
:100C1000F0E0E85AFC4F9489890F80680C945305E2
:100C200041E00E94000581E090E008951F920F923C
:100C30000FB60F9211242F933F934F935F936F93AF
:100C40007F938F939F93AF93BF93EF93FF938CE426
:100C500092E00E949D01FF91EF91BF91AF919F9112
:100C60008F917F916F915F914F913F912F910F9055
:100C70000FBE0F901F9018951F920F920FB60F92F4
:100C800011242F938F939F93EF93FF93E0915C0236
:100C9000F0915D028081E0916202F091630282FD39
:100CA0001BC09081809165028F5F8F7320916602D7
:100CB000821741F0E0916502F0E0E45BFD4F958F13
:100CC00080936502FF91EF919F918F912F910F90EB
:100CD0000FBE0F901F9018958081F4CF1F920F9236
:100CE0000FB60F9211242F933F938F939F93AF933F
:100CF000BF938091480290914902A0914A02B0911D
:100D00004B0230913C0223E0230F2D3758F501961A
:100D1000A11DB11D20933C0280934802909349028B
:100D2000A0934A02B0934B0280913D0290913E0203
:100D3000A0913F02B09140020196A11DB11D809388
:100D40003D0290933E02A0933F02B0934002BF91B8
:100D5000AF919F918F913F912F910F900FBE0F9068
:100D60001F90189526E8230F0296A11DB11DD2CF22
:100D700010924F0210924E0288EE93E0A0E0B0E095
:100D80008093500290935102A0935202B093530269
:100D900080E291E090934D0280934C0285EC90E0CC
:100DA000909359028093580284EC90E090935B02F8
:100DB00080935A0280EC90E090935D0280935C02F5
:100DC00081EC90E090935F0280935E0282EC90E071
:100DD000909361028093600286EC90E090936302AE
:100DE000809362021092650210926602109267026E
:100DF0001092680210925B0310925A038CE391E008
:100E000090935903809358038DE080935C038FEF98
:100E100080935D038CE080935E038BE080935F039F
:100E20008AE08093600389E08093610388E0809387
:100E30006203109263031092640310926503109290
:100E400066031092670361E080E10E9461051092E1
:100E5000EB021092EF021092EE021092F00282E387
:100E600091E09093EA028093E902E5E0F3E01082DA
:100E7000148213821582369683E0E134F807B9F7BD
:100E800084E091E090934C0380934B0380E091E0E9
:100E900090934E0380934D0384E080934F0380939F
:100EA000500388E091E090934A03809349038AE0DD
:100EB00090E0909352038093510384EF91E09093DC
:100EC00054038093530310925703109256031092C9
:100ED0004503109246031092470310924803109264
:100EE00055030895789484B5826084BD84B581608B
:100EF00084BD85B5826085BD85B5816085BD8091E5
:100F00006E00816080936E0010928100809181005C
:100F10008260809381008091810081608093810054
:100F2000809180008160809380008091B100846016
:100F30008093B1008091B00081608093B000809177
:100F40007A00846080937A0080917A008260809336
:100F50007A0080917A00816080937A0080917A0093
:100F6000806880937A001092C100E0915C02F09159
:100F70005D0282E08083E0915802F0915902108274
:100F8000E0915A02F0915B028FEC80831092640230
:100F9000E0916002F091610286E08083E0915E0260
:100FA000F0915F02808180618083E0915E02F09128
:100FB0005F02808188608083E0915E02F0915F0231
:100FC000808180688083E0915E02F0915F02808181
:100FD0008F7D808364E084E10E94610560E080E0B1
:100FE0000E94010684E491E00E94B80461E080E080
:100FF0000E94010687E591E00E94B80462E080E06B
:101000000E9401068BE691E00E94B80463E080E054
:101010000E94010684E791E00E94B80461E08EE03E
:101020000E94B30261E08FE00E94B30261E080E1C0
:101030000E94B302C0E0D0E00E94F3028093470216
:10104000833409F0A9C067E871E08CE492E00E9463
:10105000A9046DE871E08CE492E00E94A9040E946A
:10106000590560E080E00E94010680E991E00E945D
:10107000B80462E080E00E9401068BE991E00E94E2
:10108000B804109244021092430210924602109249
:1010900045021092420210924102809147028D3324
:1010A00009F43FC00E94F302809347028823A9F30A
:1010B0008D3399F361E0809141020E94010689EA33
:1010C00091E00E94B8048091410290914202019601
:1010D0009093420280934102209143023091440256
:1010E000F901E85EFE4F5081409147028091450230
:1010F0009091460254130FC02430310560F40196DC
:1011000090934602809345022F5F3F4F30934402F5
:1011100020934302C2CF01979093460280934502E9
:10112000BCCF1092470280914502909146020497ED
:1011300009F053C00E9459058BEA91E00E94B8045F
:1011400061E080E00E94010689EB91E00E94B80412
:1011500061E08EE00E94810261E08FE00E948102E6
:101160000E946F0460E08FE00E9481020E94590596
:1011700082EC91E00E94B80462E080E00E940106E7
:1011800084ED91E00E94B80463E080E00E940106D3
:1011900085EE91E00E94B80480914702883591F471
:1011A0000E94590560E08EE00E94810286E192E093
:1011B0000E94B80461E080E00E94010689E292E0AA
:1011C0000E94B804209709F437CF0E948901882330
:1011D00009F432CF0E9400002FCF0E9459058EEEF5
:1011E00091E00E94B80461E080E00E94010680E086
:1011F00092E00E94B80462E080E00E94010680E173
:1012000092E00E94B80461E080E10E9481020E94A5
:101210006F0460E080E10E948102BECFEE0FFF1FED
:0C1220000590F491E02D0994F894FFCFA4
:10122C0004050607000102033738392F34353658C8
:10123C003132332D43303D2B31323333000000003B
:10124C00BF011F014C010C027D015B016F0100000D
:10125C000000EF02AF027E020000000010061F012A
:10126C00A604A5042020544845204252494748541E
:10127C00204C49474854002050617373776F726457
:10128C0020446F6F72204C6F636B0020507265733B
:10129C00733A200020433A20556E6C6F636B20200C
:1012AC00583A4C6F636B0048656C6C6F000D0A000C
:1012BC00456E74657220436F646500616E642050E6
:1012CC007265737320273D27002A0053756365737D
:1012DC007366756C6C2E2E2E00556E6C6F636B6581
:1012EC006400446F6F7220697320556E6C6F636B72
:1012FC0065642E005072657373205820546F204C17
:10130C006F636B200054686520446F6F72005772D6
:10131C006F6E672050617373776F72642E2121009A
:10132C005072657373204320616E6420547279008F
:10133C00416761696E004C6F636B65643A20507253
:10134C00657373204320546F00556E6C6F636B2074
:0C135C0074686520446F6F72212100004E
:00000001FF
